{
  "contractName": "Cert",
  "abi": [
    {
      "inputs": [],
      "stateMutability": "nonpayable",
      "type": "constructor"
    },
    {
      "anonymous": false,
      "inputs": [
        {
          "indexed": true,
          "internalType": "string",
          "name": "course",
          "type": "string"
        },
        {
          "indexed": false,
          "internalType": "uint256",
          "name": "id",
          "type": "uint256"
        },
        {
          "indexed": false,
          "internalType": "string",
          "name": "grade",
          "type": "string"
        }
      ],
      "name": "Issued",
      "type": "event"
    },
    {
      "inputs": [
        {
          "internalType": "uint256",
          "name": "",
          "type": "uint256"
        }
      ],
      "name": "Certificates",
      "outputs": [
        {
          "internalType": "string",
          "name": "name",
          "type": "string"
        },
        {
          "internalType": "string",
          "name": "course",
          "type": "string"
        },
        {
          "internalType": "string",
          "name": "grade",
          "type": "string"
        },
        {
          "internalType": "string",
          "name": "date",
          "type": "string"
        },
        {
          "internalType": "bytes",
          "name": "document",
          "type": "bytes"
        }
      ],
      "stateMutability": "view",
      "type": "function",
      "constant": true
    },
    {
      "inputs": [
        {
          "internalType": "uint256",
          "name": "_id",
          "type": "uint256"
        },
        {
          "internalType": "string",
          "name": "_name",
          "type": "string"
        },
        {
          "internalType": "string",
          "name": "_course",
          "type": "string"
        },
        {
          "internalType": "string",
          "name": "_grade",
          "type": "string"
        },
        {
          "internalType": "string",
          "name": "_date",
          "type": "string"
        },
        {
          "internalType": "bytes",
          "name": "_document",
          "type": "bytes"
        }
      ],
      "name": "issue",
      "outputs": [],
      "stateMutability": "nonpayable",
      "type": "function"
    }
  ],
  "bytecode": "0x608060405234801561000f575f80fd5b50335f806101000a81548173ffffffffffffffffffffffffffffffffffffffff021916908373ffffffffffffffffffffffffffffffffffffffff160217905550610e9c8061005c5f395ff3fe608060405234801561000f575f80fd5b5060043610610034575f3560e01c8063578193ca146100385780639622c83614610054575b5f80fd5b610052600480360381019061004d9190610701565b610088565b005b61006e60048036038101906100699190610816565b610213565b60405161007f95949392919061090d565b60405180910390f35b5f8054906101000a900473ffffffffffffffffffffffffffffffffffffffff1673ffffffffffffffffffffffffffffffffffffffff163373ffffffffffffffffffffffffffffffffffffffff1614610115576040517f08c379a000000000000000000000000000000000000000000000000000000000815260040161010c906109cb565b60405180910390fd5b6040518060a001604052808681526020018581526020018481526020018381526020018281525060015f8881526020019081526020015f205f820151815f0190816101609190610be3565b5060208201518160010190816101769190610be3565b50604082015181600201908161018c9190610be3565b5060608201518160030190816101a29190610be3565b5060808201518160040190816101b89190610d0a565b50905050836040516101ca9190610e13565b60405180910390207fc7fc4858662996e8fe091a9941384ab745bfc51199d7c0a5e45a791ff945993c8785604051610203929190610e38565b60405180910390a2505050505050565b6001602052805f5260405f205f91509050805f01805461023290610a16565b80601f016020809104026020016040519081016040528092919081815260200182805461025e90610a16565b80156102a95780601f10610280576101008083540402835291602001916102a9565b820191905f5260205f20905b81548152906001019060200180831161028c57829003601f168201915b5050505050908060010180546102be90610a16565b80601f01602080910402602001604051908101604052809291908181526020018280546102ea90610a16565b80156103355780601f1061030c57610100808354040283529160200191610335565b820191905f5260205f20905b81548152906001019060200180831161031857829003601f168201915b50505050509080600201805461034a90610a16565b80601f016020809104026020016040519081016040528092919081815260200182805461037690610a16565b80156103c15780601f10610398576101008083540402835291602001916103c1565b820191905f5260205f20905b8154815290600101906020018083116103a457829003601f168201915b5050505050908060030180546103d690610a16565b80601f016020809104026020016040519081016040528092919081815260200182805461040290610a16565b801561044d5780601f106104245761010080835404028352916020019161044d565b820191905f5260205f20905b81548152906001019060200180831161043057829003601f168201915b50505050509080600401805461046290610a16565b80601f016020809104026020016040519081016040528092919081815260200182805461048e90610a16565b80156104d95780601f106104b0576101008083540402835291602001916104d9565b820191905f5260205f20905b8154815290600101906020018083116104bc57829003601f168201915b5050505050905085565b5f604051905090565b5f80fd5b5f80fd5b5f819050919050565b610506816104f4565b8114610510575f80fd5b50565b5f81359050610521816104fd565b92915050565b5f80fd5b5f80fd5b5f601f19601f8301169050919050565b7f4e487b71000000000000000000000000000000000000000000000000000000005f52604160045260245ffd5b6105758261052f565b810181811067ffffffffffffffff821117156105945761059361053f565b5b80604052505050565b5f6105a66104e3565b90506105b2828261056c565b919050565b5f67ffffffffffffffff8211156105d1576105d061053f565b5b6105da8261052f565b9050602081019050919050565b828183375f83830152505050565b5f610607610602846105b7565b61059d565b9050828152602081018484840111156106235761062261052b565b5b61062e8482856105e7565b509392505050565b5f82601f83011261064a57610649610527565b5b813561065a8482602086016105f5565b91505092915050565b5f67ffffffffffffffff82111561067d5761067c61053f565b5b6106868261052f565b9050602081019050919050565b5f6106a56106a084610663565b61059d565b9050828152602081018484840111156106c1576106c061052b565b5b6106cc8482856105e7565b509392505050565b5f82601f8301126106e8576106e7610527565b5b81356106f8848260208601610693565b91505092915050565b5f805f805f8060c0878903121561071b5761071a6104ec565b5b5f61072889828a01610513565b965050602087013567ffffffffffffffff811115610749576107486104f0565b5b61075589828a01610636565b955050604087013567ffffffffffffffff811115610776576107756104f0565b5b61078289828a01610636565b945050606087013567ffffffffffffffff8111156107a3576107a26104f0565b5b6107af89828a01610636565b935050608087013567ffffffffffffffff8111156107d0576107cf6104f0565b5b6107dc89828a01610636565b92505060a087013567ffffffffffffffff8111156107fd576107fc6104f0565b5b61080989828a016106d4565b9150509295509295509295565b5f6020828403121561082b5761082a6104ec565b5b5f61083884828501610513565b91505092915050565b5f81519050919050565b5f82825260208201905092915050565b5f5b8381101561087857808201518184015260208101905061085d565b5f8484015250505050565b5f61088d82610841565b610897818561084b565b93506108a781856020860161085b565b6108b08161052f565b840191505092915050565b5f81519050919050565b5f82825260208201905092915050565b5f6108df826108bb565b6108e981856108c5565b93506108f981856020860161085b565b6109028161052f565b840191505092915050565b5f60a0820190508181035f8301526109258188610883565b905081810360208301526109398187610883565b9050818103604083015261094d8186610883565b905081810360608301526109618185610883565b9050818103608083015261097581846108d5565b90509695505050505050565b7f4163636573732044656e696564000000000000000000000000000000000000005f82015250565b5f6109b5600d8361084b565b91506109c082610981565b602082019050919050565b5f6020820190508181035f8301526109e2816109a9565b9050919050565b7f4e487b71000000000000000000000000000000000000000000000000000000005f52602260045260245ffd5b5f6002820490506001821680610a2d57607f821691505b602082108103610a4057610a3f6109e9565b5b50919050565b5f819050815f5260205f209050919050565b5f6020601f8301049050919050565b5f82821b905092915050565b5f60088302610aa27fffffffffffffffffffffffffffffffffffffffffffffffffffffffffffffffff82610a67565b610aac8683610a67565b95508019841693508086168417925050509392505050565b5f819050919050565b5f610ae7610ae2610add846104f4565b610ac4565b6104f4565b9050919050565b5f819050919050565b610b0083610acd565b610b14610b0c82610aee565b848454610a73565b825550505050565b5f90565b610b28610b1c565b610b33818484610af7565b505050565b5b81811015610b5657610b4b5f82610b20565b600181019050610b39565b5050565b601f821115610b9b57610b6c81610a46565b610b7584610a58565b81016020851015610b84578190505b610b98610b9085610a58565b830182610b38565b50505b505050565b5f82821c905092915050565b5f610bbb5f1984600802610ba0565b1980831691505092915050565b5f610bd38383610bac565b9150826002028217905092915050565b610bec82610841565b67ffffffffffffffff811115610c0557610c0461053f565b5b610c0f8254610a16565b610c1a828285610b5a565b5f60209050601f831160018114610c4b575f8415610c39578287015190505b610c438582610bc8565b865550610caa565b601f198416610c5986610a46565b5f5b82811015610c8057848901518255600182019150602085019450602081019050610c5b565b86831015610c9d5784890151610c99601f891682610bac565b8355505b6001600288020188555050505b505050505050565b5f819050815f5260205f209050919050565b601f821115610d0557610cd681610cb2565b610cdf84610a58565b81016020851015610cee578190505b610d02610cfa85610a58565b830182610b38565b50505b505050565b610d13826108bb565b67ffffffffffffffff811115610d2c57610d2b61053f565b5b610d368254610a16565b610d41828285610cc4565b5f60209050601f831160018114610d72575f8415610d60578287015190505b610d6a8582610bc8565b865550610dd1565b601f198416610d8086610cb2565b5f5b82811015610da757848901518255600182019150602085019450602081019050610d82565b86831015610dc45784890151610dc0601f891682610bac565b8355505b6001600288020188555050505b505050505050565b5f81905092915050565b5f610ded82610841565b610df78185610dd9565b9350610e0781856020860161085b565b80840191505092915050565b5f610e1e8284610de3565b915081905092915050565b610e32816104f4565b82525050565b5f604082019050610e4b5f830185610e29565b8181036020830152610e5d8184610883565b9050939250505056fea2646970667358221220ee0c872ddaed45a18b1bb23f4d6df08409a081ab9ed297dce2c418d3c801c9d164736f6c63430008150033",
  "immutableReferences": {},
  "source": "// SPDX-License-Identifier: MIT\npragma solidity ^0.8.21;\n\ncontract Cert {\n    address admin;\n    event Issued(string indexed course, uint256 id, string grade);\n\n    constructor() {\n        admin = msg.sender;\n    }\n\n    modifier onlyAdmin() {\n        require(msg.sender == admin, \"Access Denied\");\n        _;\n    }\n\n    struct Certificate {\n        string name;\n        string course;\n        string grade;\n        string date;\n        bytes document;\n    }\n\n    mapping(uint256 => Certificate) public Certificates;\n\n    function issue(\n        uint256 _id,\n        string memory _name,\n        string memory _course,\n        string memory _grade,\n        string memory _date,\n        bytes memory _document\n    ) public onlyAdmin {\n        Certificates[_id] = Certificate(_name, _course, _grade, _date,_document);\n        emit Issued(_course, _id, _grade);\n    }\n}\n",
  "sourcePath": "D:\\blockchainarchitect9\\kba\\Certified_Ethereum_Developer\\express-certificate-dapp\\truffle\\contracts\\Cert.sol",
  "compiler": {
    "name": "solc",
    "version": "0.8.21+commit.d9974bed.Emscripten.clang"
  },
  "schemaVersion": "3.4.16",
  "updatedAt": "2023-09-16T06:24:02.802Z",
  "networkType": "ethereum",
  "devdoc": {
    "kind": "dev",
    "methods": {},
    "version": 1
  },
  "userdoc": {
    "kind": "user",
    "methods": {},
    "version": 1
  }
}